:030000000208B340
:0C08B300787FE4F6D8FD7581070208008C
:0A08BF0054656D702032372E3000B2
:100800007F0A7E0012087612082D7F057E001208EE
:10081000767F827E001208C97F057E001208767BF3
:0D082000FF7A0879BF12089E12085080FE72
:0A086C00C2A58F80D2A77F017E0095
:0E087600EF600B7EC77D01DDFEDEFA1F80F213
:010884002251
:10082D007F0F7E001208767F387E001208C97F0C7C
:10083D007E001208C97F067E001208C97F017E0066
:03084D000208C9D5
:0808C900C2A612086CC2A722AE
:0808D100D2A612086CC2A72296
:02085000AC07F3
:10085200E4FBEBC39C500CEB9008BF93FF1208D152
:0A0862000B80EF7F057E0002087690
:10089E00E4FFFE120885600C0FEF70010E09E9707F
:0508AE00F20A80EF22B8
:10088500BB010689828A83E0225002E722BBFE0271
:09089500E32289828A83E49322A4
:00000001FF
